{"abi":[{"type":"constructor","inputs":[{"name":"_poolManager","type":"address","internalType":"contract IPoolManager"},{"name":"_posm","type":"address","internalType":"contract PoolModifyLiquidityTest"},{"name":"_quoter","type":"address","internalType":"contract IV4Quoter"},{"name":"_uniHelper","type":"address","internalType":"contract UniHelper"}],"stateMutability":"nonpayable"},{"type":"function","name":"TICK_SPACING","inputs":[],"outputs":[{"name":"","type":"int24","internalType":"int24"}],"stateMutability":"view"},{"type":"function","name":"_handleSwap","inputs":[{"name":"key","type":"tuple","internalType":"struct PoolKey","components":[{"name":"currency0","type":"address","internalType":"Currency"},{"name":"currency1","type":"address","internalType":"Currency"},{"name":"fee","type":"uint24","internalType":"uint24"},{"name":"tickSpacing","type":"int24","internalType":"int24"},{"name":"hooks","type":"address","internalType":"contract IHooks"}]},{"name":"params","type":"tuple","internalType":"struct IPoolManager.SwapParams","components":[{"name":"zeroForOne","type":"bool","internalType":"bool"},{"name":"amountSpecified","type":"int256","internalType":"int256"},{"name":"sqrtPriceLimitX96","type":"uint160","internalType":"uint160"}]}],"outputs":[{"name":"","type":"int256","internalType":"BalanceDelta"}],"stateMutability":"nonpayable"},{"type":"function","name":"afterAddLiquidity","inputs":[{"name":"sender","type":"address","internalType":"address"},{"name":"key","type":"tuple","internalType":"struct PoolKey","components":[{"name":"currency0","type":"address","internalType":"Currency"},{"name":"currency1","type":"address","internalType":"Currency"},{"name":"fee","type":"uint24","internalType":"uint24"},{"name":"tickSpacing","type":"int24","internalType":"int24"},{"name":"hooks","type":"address","internalType":"contract IHooks"}]},{"name":"params","type":"tuple","internalType":"struct IPoolManager.ModifyLiquidityParams","components":[{"name":"tickLower","type":"int24","internalType":"int24"},{"name":"tickUpper","type":"int24","internalType":"int24"},{"name":"liquidityDelta","type":"int256","internalType":"int256"},{"name":"salt","type":"bytes32","internalType":"bytes32"}]},{"name":"delta","type":"int256","internalType":"BalanceDelta"},{"name":"feesAccrued","type":"int256","internalType":"BalanceDelta"},{"name":"hookData","type":"bytes","internalType":"bytes"}],"outputs":[{"name":"","type":"bytes4","internalType":"bytes4"},{"name":"","type":"int256","internalType":"BalanceDelta"}],"stateMutability":"nonpayable"},{"type":"function","name":"afterDonate","inputs":[{"name":"sender","type":"address","internalType":"address"},{"name":"key","type":"tuple","internalType":"struct PoolKey","components":[{"name":"currency0","type":"address","internalType":"Currency"},{"name":"currency1","type":"address","internalType":"Currency"},{"name":"fee","type":"uint24","internalType":"uint24"},{"name":"tickSpacing","type":"int24","internalType":"int24"},{"name":"hooks","type":"address","internalType":"contract IHooks"}]},{"name":"amount0","type":"uint256","internalType":"uint256"},{"name":"amount1","type":"uint256","internalType":"uint256"},{"name":"hookData","type":"bytes","internalType":"bytes"}],"outputs":[{"name":"","type":"bytes4","internalType":"bytes4"}],"stateMutability":"nonpayable"},{"type":"function","name":"afterInitialize","inputs":[{"name":"sender","type":"address","internalType":"address"},{"name":"key","type":"tuple","internalType":"struct PoolKey","components":[{"name":"currency0","type":"address","internalType":"Currency"},{"name":"currency1","type":"address","internalType":"Currency"},{"name":"fee","type":"uint24","internalType":"uint24"},{"name":"tickSpacing","type":"int24","internalType":"int24"},{"name":"hooks","type":"address","internalType":"contract IHooks"}]},{"name":"sqrtPriceX96","type":"uint160","internalType":"uint160"},{"name":"tick","type":"int24","internalType":"int24"}],"outputs":[{"name":"","type":"bytes4","internalType":"bytes4"}],"stateMutability":"nonpayable"},{"type":"function","name":"afterRemoveLiquidity","inputs":[{"name":"sender","type":"address","internalType":"address"},{"name":"key","type":"tuple","internalType":"struct PoolKey","components":[{"name":"currency0","type":"address","internalType":"Currency"},{"name":"currency1","type":"address","internalType":"Currency"},{"name":"fee","type":"uint24","internalType":"uint24"},{"name":"tickSpacing","type":"int24","internalType":"int24"},{"name":"hooks","type":"address","internalType":"contract IHooks"}]},{"name":"params","type":"tuple","internalType":"struct IPoolManager.ModifyLiquidityParams","components":[{"name":"tickLower","type":"int24","internalType":"int24"},{"name":"tickUpper","type":"int24","internalType":"int24"},{"name":"liquidityDelta","type":"int256","internalType":"int256"},{"name":"salt","type":"bytes32","internalType":"bytes32"}]},{"name":"delta","type":"int256","internalType":"BalanceDelta"},{"name":"feesAccrued","type":"int256","internalType":"BalanceDelta"},{"name":"hookData","type":"bytes","internalType":"bytes"}],"outputs":[{"name":"","type":"bytes4","internalType":"bytes4"},{"name":"","type":"int256","internalType":"BalanceDelta"}],"stateMutability":"nonpayable"},{"type":"function","name":"afterSwap","inputs":[{"name":"sender","type":"address","internalType":"address"},{"name":"key","type":"tuple","internalType":"struct PoolKey","components":[{"name":"currency0","type":"address","internalType":"Currency"},{"name":"currency1","type":"address","internalType":"Currency"},{"name":"fee","type":"uint24","internalType":"uint24"},{"name":"tickSpacing","type":"int24","internalType":"int24"},{"name":"hooks","type":"address","internalType":"contract IHooks"}]},{"name":"params","type":"tuple","internalType":"struct IPoolManager.SwapParams","components":[{"name":"zeroForOne","type":"bool","internalType":"bool"},{"name":"amountSpecified","type":"int256","internalType":"int256"},{"name":"sqrtPriceLimitX96","type":"uint160","internalType":"uint160"}]},{"name":"delta","type":"int256","internalType":"BalanceDelta"},{"name":"hookData","type":"bytes","internalType":"bytes"}],"outputs":[{"name":"","type":"bytes4","internalType":"bytes4"},{"name":"","type":"int128","internalType":"int128"}],"stateMutability":"nonpayable"},{"type":"function","name":"beforeAddLiquidity","inputs":[{"name":"sender","type":"address","internalType":"address"},{"name":"key","type":"tuple","internalType":"struct PoolKey","components":[{"name":"currency0","type":"address","internalType":"Currency"},{"name":"currency1","type":"address","internalType":"Currency"},{"name":"fee","type":"uint24","internalType":"uint24"},{"name":"tickSpacing","type":"int24","internalType":"int24"},{"name":"hooks","type":"address","internalType":"contract IHooks"}]},{"name":"params","type":"tuple","internalType":"struct IPoolManager.ModifyLiquidityParams","components":[{"name":"tickLower","type":"int24","internalType":"int24"},{"name":"tickUpper","type":"int24","internalType":"int24"},{"name":"liquidityDelta","type":"int256","internalType":"int256"},{"name":"salt","type":"bytes32","internalType":"bytes32"}]},{"name":"hookData","type":"bytes","internalType":"bytes"}],"outputs":[{"name":"","type":"bytes4","internalType":"bytes4"}],"stateMutability":"nonpayable"},{"type":"function","name":"beforeDonate","inputs":[{"name":"sender","type":"address","internalType":"address"},{"name":"key","type":"tuple","internalType":"struct PoolKey","components":[{"name":"currency0","type":"address","internalType":"Currency"},{"name":"currency1","type":"address","internalType":"Currency"},{"name":"fee","type":"uint24","internalType":"uint24"},{"name":"tickSpacing","type":"int24","internalType":"int24"},{"name":"hooks","type":"address","internalType":"contract IHooks"}]},{"name":"amount0","type":"uint256","internalType":"uint256"},{"name":"amount1","type":"uint256","internalType":"uint256"},{"name":"hookData","type":"bytes","internalType":"bytes"}],"outputs":[{"name":"","type":"bytes4","internalType":"bytes4"}],"stateMutability":"nonpayable"},{"type":"function","name":"beforeInitialize","inputs":[{"name":"sender","type":"address","internalType":"address"},{"name":"key","type":"tuple","internalType":"struct PoolKey","components":[{"name":"currency0","type":"address","internalType":"Currency"},{"name":"currency1","type":"address","internalType":"Currency"},{"name":"fee","type":"uint24","internalType":"uint24"},{"name":"tickSpacing","type":"int24","internalType":"int24"},{"name":"hooks","type":"address","internalType":"contract IHooks"}]},{"name":"sqrtPriceX96","type":"uint160","internalType":"uint160"}],"outputs":[{"name":"","type":"bytes4","internalType":"bytes4"}],"stateMutability":"nonpayable"},{"type":"function","name":"beforeRemoveLiquidity","inputs":[{"name":"sender","type":"address","internalType":"address"},{"name":"key","type":"tuple","internalType":"struct PoolKey","components":[{"name":"currency0","type":"address","internalType":"Currency"},{"name":"currency1","type":"address","internalType":"Currency"},{"name":"fee","type":"uint24","internalType":"uint24"},{"name":"tickSpacing","type":"int24","internalType":"int24"},{"name":"hooks","type":"address","internalType":"contract IHooks"}]},{"name":"params","type":"tuple","internalType":"struct IPoolManager.ModifyLiquidityParams","components":[{"name":"tickLower","type":"int24","internalType":"int24"},{"name":"tickUpper","type":"int24","internalType":"int24"},{"name":"liquidityDelta","type":"int256","internalType":"int256"},{"name":"salt","type":"bytes32","internalType":"bytes32"}]},{"name":"hookData","type":"bytes","internalType":"bytes"}],"outputs":[{"name":"","type":"bytes4","internalType":"bytes4"}],"stateMutability":"nonpayable"},{"type":"function","name":"beforeSwap","inputs":[{"name":"sender","type":"address","internalType":"address"},{"name":"key","type":"tuple","internalType":"struct PoolKey","components":[{"name":"currency0","type":"address","internalType":"Currency"},{"name":"currency1","type":"address","internalType":"Currency"},{"name":"fee","type":"uint24","internalType":"uint24"},{"name":"tickSpacing","type":"int24","internalType":"int24"},{"name":"hooks","type":"address","internalType":"contract IHooks"}]},{"name":"params","type":"tuple","internalType":"struct IPoolManager.SwapParams","components":[{"name":"zeroForOne","type":"bool","internalType":"bool"},{"name":"amountSpecified","type":"int256","internalType":"int256"},{"name":"sqrtPriceLimitX96","type":"uint160","internalType":"uint160"}]},{"name":"hookData","type":"bytes","internalType":"bytes"}],"outputs":[{"name":"","type":"bytes4","internalType":"bytes4"},{"name":"","type":"int256","internalType":"BeforeSwapDelta"},{"name":"","type":"uint24","internalType":"uint24"}],"stateMutability":"nonpayable"},{"type":"function","name":"cancelMarket","inputs":[{"name":"poolId","type":"bytes32","internalType":"PoolId"}],"outputs":[],"stateMutability":"nonpayable"},{"type":"function","name":"claimWinnings","inputs":[{"name":"poolId","type":"bytes32","internalType":"PoolId"}],"outputs":[],"stateMutability":"nonpayable"},{"type":"function","name":"claimedTokens","inputs":[{"name":"poolId","type":"bytes32","internalType":"PoolId"}],"outputs":[{"name":"","type":"uint256","internalType":"uint256"}],"stateMutability":"view"},{"type":"function","name":"createMarketAndDepositCollateral","inputs":[{"name":"oracle","type":"address","internalType":"address"},{"name":"creator","type":"address","internalType":"address"},{"name":"collateralAddress","type":"address","internalType":"address"},{"name":"collateralAmount","type":"uint256","internalType":"uint256"}],"outputs":[{"name":"","type":"bytes32","internalType":"PoolId"}],"stateMutability":"nonpayable"},{"type":"function","name":"createMarketWithCollateralAndLiquidity","inputs":[{"name":"oracle","type":"address","internalType":"address"},{"name":"creator","type":"address","internalType":"address"},{"name":"collateralAddress","type":"address","internalType":"address"},{"name":"collateralAmount","type":"uint256","internalType":"uint256"}],"outputs":[{"name":"","type":"bytes32","internalType":"PoolId"}],"stateMutability":"nonpayable"},{"type":"function","name":"executeSwap","inputs":[{"name":"poolId","type":"bytes32","internalType":"PoolId"},{"name":"zeroForOne","type":"bool","internalType":"bool"},{"name":"desiredOutcomeTokens","type":"int128","internalType":"int128"}],"outputs":[],"stateMutability":"nonpayable"},{"type":"function","name":"getHookPermissions","inputs":[],"outputs":[{"name":"","type":"tuple","internalType":"struct Hooks.Permissions","components":[{"name":"beforeInitialize","type":"bool","internalType":"bool"},{"name":"afterInitialize","type":"bool","internalType":"bool"},{"name":"beforeAddLiquidity","type":"bool","internalType":"bool"},{"name":"afterAddLiquidity","type":"bool","internalType":"bool"},{"name":"beforeRemoveLiquidity","type":"bool","internalType":"bool"},{"name":"afterRemoveLiquidity","type":"bool","internalType":"bool"},{"name":"beforeSwap","type":"bool","internalType":"bool"},{"name":"afterSwap","type":"bool","internalType":"bool"},{"name":"beforeDonate","type":"bool","internalType":"bool"},{"name":"afterDonate","type":"bool","internalType":"bool"},{"name":"beforeSwapReturnDelta","type":"bool","internalType":"bool"},{"name":"afterSwapReturnDelta","type":"bool","internalType":"bool"},{"name":"afterAddLiquidityReturnDelta","type":"bool","internalType":"bool"},{"name":"afterRemoveLiquidityReturnDelta","type":"bool","internalType":"bool"}]}],"stateMutability":"pure"},{"type":"function","name":"hasClaimed","inputs":[{"name":"poolId","type":"bytes32","internalType":"PoolId"},{"name":"user","type":"address","internalType":"address"}],"outputs":[{"name":"","type":"bool","internalType":"bool"}],"stateMutability":"view"},{"type":"function","name":"marketCount","inputs":[],"outputs":[{"name":"","type":"uint256","internalType":"uint256"}],"stateMutability":"view"},{"type":"function","name":"marketPoolIds","inputs":[{"name":"index","type":"uint256","internalType":"uint256"}],"outputs":[{"name":"","type":"bytes32","internalType":"PoolId"}],"stateMutability":"view"},{"type":"function","name":"markets","inputs":[{"name":"poolId","type":"bytes32","internalType":"PoolId"}],"outputs":[{"name":"","type":"tuple","internalType":"struct Market","components":[{"name":"poolKey","type":"tuple","internalType":"struct PoolKey","components":[{"name":"currency0","type":"address","internalType":"Currency"},{"name":"currency1","type":"address","internalType":"Currency"},{"name":"fee","type":"uint24","internalType":"uint24"},{"name":"tickSpacing","type":"int24","internalType":"int24"},{"name":"hooks","type":"address","internalType":"contract IHooks"}]},{"name":"oracle","type":"address","internalType":"address"},{"name":"creator","type":"address","internalType":"address"},{"name":"yesToken","type":"address","internalType":"contract OutcomeToken"},{"name":"noToken","type":"address","internalType":"contract OutcomeToken"},{"name":"state","type":"uint8","internalType":"enum MarketState"},{"name":"outcome","type":"bool","internalType":"bool"},{"name":"totalCollateral","type":"uint256","internalType":"uint256"},{"name":"collateralAddress","type":"address","internalType":"address"}]}],"stateMutability":"view"},{"type":"function","name":"poolManager","inputs":[],"outputs":[{"name":"","type":"address","internalType":"contract IPoolManager"}],"stateMutability":"view"},{"type":"function","name":"poolm","inputs":[],"outputs":[{"name":"","type":"address","internalType":"contract IPoolManager"}],"stateMutability":"view"},{"type":"function","name":"posm","inputs":[],"outputs":[{"name":"","type":"address","internalType":"contract PoolModifyLiquidityTest"}],"stateMutability":"view"},{"type":"function","name":"quoteCollateralNeededForTrade","inputs":[{"name":"poolId","type":"bytes32","internalType":"PoolId"},{"name":"amountNew","type":"uint256","internalType":"uint256"},{"name":"amountOld","type":"uint256","internalType":"uint256"},{"name":"collateralAmount","type":"uint256","internalType":"uint256"},{"name":"collateralAddress","type":"address","internalType":"address"}],"outputs":[{"name":"","type":"int256","internalType":"int256"}],"stateMutability":"view"},{"type":"function","name":"quoter","inputs":[],"outputs":[{"name":"","type":"address","internalType":"contract IV4Quoter"}],"stateMutability":"view"},{"type":"function","name":"resolveMarket","inputs":[{"name":"poolId","type":"bytes32","internalType":"PoolId"},{"name":"outcome","type":"bool","internalType":"bool"}],"outputs":[],"stateMutability":"nonpayable"},{"type":"function","name":"uniHelper","inputs":[],"outputs":[{"name":"","type":"address","internalType":"contract UniHelper"}],"stateMutability":"view"},{"type":"event","name":"MarketCancelled","inputs":[{"name":"poolId","type":"bytes32","indexed":true,"internalType":"PoolId"}],"anonymous":false},{"type":"event","name":"MarketCreated","inputs":[{"name":"poolId","type":"bytes32","indexed":true,"internalType":"PoolId"},{"name":"oracle","type":"address","indexed":true,"internalType":"address"},{"name":"creator","type":"address","indexed":true,"internalType":"address"},{"name":"yesToken","type":"address","indexed":false,"internalType":"address"},{"name":"noToken","type":"address","indexed":false,"internalType":"address"},{"name":"state","type":"uint8","indexed":false,"internalType":"enum MarketState"},{"name":"outcome","type":"bool","indexed":false,"internalType":"bool"},{"name":"totalCollateral","type":"uint256","indexed":false,"internalType":"uint256"},{"name":"collateralAddress","type":"address","indexed":false,"internalType":"address"}],"anonymous":false},{"type":"event","name":"MarketResolved","inputs":[{"name":"poolId","type":"bytes32","indexed":true,"internalType":"PoolId"},{"name":"outcome","type":"bool","indexed":false,"internalType":"bool"}],"anonymous":false},{"type":"event","name":"WinningsClaimed","inputs":[{"name":"poolId","type":"bytes32","indexed":true,"internalType":"PoolId"},{"name":"user","type":"address","indexed":true,"internalType":"address"},{"name":"amount","type":"uint256","indexed":false,"internalType":"uint256"}],"anonymous":false},{"type":"error","name":"AlreadyClaimed","inputs":[]},{"type":"error","name":"DirectLiquidityNotAllowed","inputs":[]},{"type":"error","name":"DirectSwapsNotAllowed","inputs":[]},{"type":"error","name":"HookNotImplemented","inputs":[]},{"type":"error","name":"MarketAlreadyResolved","inputs":[]},{"type":"error","name":"MarketNotResolved","inputs":[]},{"type":"error","name":"NoTokensToClaim","inputs":[]},{"type":"error","name":"NotOracle","inputs":[]},{"type":"error","name":"NotOracleOrCreator","inputs":[]},{"type":"error","name":"NotPoolManager","inputs":[]},{"type":"error","name":"OutOfBounds","inputs":[]}],"bytecode":{"object":"0x60c06040526002805462ffffff60a01b1916601960a21b179055348015610024575f80fd5b506040516163bf3803806163bf83398101604081905261004391610312565b6001600160a01b0384166080528361005a306100a3565b505f80546001600160a01b03199081166001600160a01b03968716179091556001805482169486169490941790935560028054909316918416919091179091551660a05261036e565b61019681610191604080516101c0810182525f80825260208201819052918101829052606081018290526080810182905260a0810182905260c0810182905260e08101829052610100810182905261012081018290526101408101829052610160810182905261018081018290526101a081019190915250604080516101c0810182525f808252602082018190526001928201839052606082018190526080820183905260a0820181905260c082019290925260e08101829052610100810182905261012081018290526101408101829052610160810182905261018081018290526101a081019190915290565b610199565b50565b80511515612000831615151415806101bd5750602081015115156110008316151514155b806101d45750604081015115156108008316151514155b806101eb5750606081015115156104008316151514155b806102025750608081015115156102008316151514155b80610219575060a081015115156101008316151514155b8061022f575060c0810151151560808316151514155b80610245575060e0810151151560408316151514155b8061025c5750610100810151151560208316151514155b806102735750610120810151151560108316151514155b8061028a5750610140810151151560088316151514155b806102a15750610160810151151560048316151514155b806102b85750610180810151151560028316151514155b806102cf57506101a0810151151560018316151514155b156102e5576102e5630732d7b560e51b836102e9565b5050565b815f526001600160a01b03811660045260245ffd5b6001600160a01b0381168114610196575f80fd5b5f805f8060808587031215610325575f80fd5b8451610330816102fe565b6020860151909450610341816102fe565b6040860151909350610352816102fe565b6060860151909250610363816102fe565b939692955090935050565b60805160a051615fea6103d55f395f8181610595015281816111fa0152611da301525f81816105bc0152818161063a0152818161069b01528181610f0001528181611a9701528181611bb80152818161224a015281816122b101526123bb0152615fea5ff3fe608060405234801561000f575f80fd5b50600436106101d1575f3560e01c80639f063efc116100fe578063c4e833ce1161009e578063dc98354e1161006e578063dc98354e146105de578063e1b4af6914610410578063e49b606c146105f1578063ec97908214610604575f80fd5b8063c4e833ce14610486578063c6bbd5a71461057d578063d05d783e14610590578063dc4c90d3146105b7575f80fd5b8063b7988290116100d9578063b798829014610423578063bc8aac5714610442578063bdb8328914610454578063c441b23914610467575f80fd5b80639f063efc146102db578063b47b2fb1146103da578063b6a8b0fa14610410575f80fd5b80636b5c215b116101745780636fe7e6eb116101445780636fe7e6eb1461034c57806374899d8a1461035f5780637564912b1461037257806392a42d1d14610392575f80fd5b80636b5c215b146102c65780636c2bbe7e146102db5780636c9f13941461030e5780636f70a7fa14610321575f80fd5b80633e0b6237116101af5780633e0b62371461023a57806346ca626b1461024d578063575e24b4146102755780635be192d7146102b3575f80fd5b80631089624f146101d557806321d0ee70146101fb578063259982e514610227575b5f80fd5b6101e86101e33660046144bb565b61060c565b6040519081526020015b60405180910390f35b61020e610209366004614574565b61062e565b6040516001600160e01b031990911681526020016101f2565b61020e610235366004614574565b61068f565b6101e86102483660046145fb565b6106e6565b6002805461026291600160a01b909104900b81565b60405160029190910b81526020016101f2565b61028861028336600461462f565b610ef2565b604080516001600160e01b03199094168452602084019290925262ffffff16908201526060016101f2565b6101e86102c1366004614689565b610f5c565b6102d96102d43660046146df565b6110d2565b005b6102ee6102e9366004614724565b611a8a565b604080516001600160e01b031990931683526020830191909152016101f2565b6102d961031c3660046147af565b611af4565b600154610334906001600160a01b031681565b6040516001600160a01b0390911681526020016101f2565b61020e61035a3660046147eb565b611bac565b6101e861036d3660046144bb565b611c02565b610385610380366004614844565b6120bd565b6040516101f2919061496d565b6103ca6103a036600461497c565b5f9182526006602090815260408084206001600160a01b0393909316845291905290205460ff1690565b60405190151581526020016101f2565b6103ed6103e836600461499f565b61223d565b604080516001600160e01b03199093168352600f9190910b6020830152016101f2565b61020e61041e366004614a20565b6122a5565b6101e8610431366004614844565b5f9081526004602052604090205490565b5f54610334906001600160a01b031681565b6102d9610462366004614844565b612308565b6101e8610475366004614844565b5f9081526007602052604090205490565b610570604080516101c0810182525f80825260208201819052918101829052606081018290526080810182905260a0810182905260c0810182905260e08101829052610100810182905261012081018290526101408101829052610160810182905261018081018290526101a081019190915250604080516101c0810182525f808252602082018190526001928201839052606082018190526080820183905260a0820181905260c082019290925260e08101829052610100810182905261012081018290526101408101829052610160810182905261018081018290526101a081019190915290565b6040516101f29190614a7a565b600254610334906001600160a01b031681565b6103347f000000000000000000000000000000000000000000000000000000000000000081565b6103347f000000000000000000000000000000000000000000000000000000000000000081565b61020e6105ec366004614b9b565b6123af565b6102d96105ff366004614844565b61240e565b6003546101e8565b5f8061061a86868686611c02565b9050610625816129ca565b95945050505050565b5f336001600160a01b037f000000000000000000000000000000000000000000000000000000000000000016146106785760405163570c108560e11b815260040160405180910390fd5b6106858686868686612e5b565b9695505050505050565b5f336001600160a01b037f000000000000000000000000000000000000000000000000000000000000000016146106d95760405163570c108560e11b815260040160405180910390fd5b610685868686868661302d565b5f6107256040518060400160405280602081526020017f2d2d2d2d2d2d2d2d2d2d2d2d2d2d2d2d2d2d2d2d2d2d2d2d2d2d2d2d2d2d2d2d815250613274565b610758604051806040016040528060128152602001710696e73696465205f68616e646c65537761760741b815250613274565b6107966040518060400160405280602081526020017f2d2d2d2d2d2d2d2d2d2d2d2d2d2d2d2d2d2d2d2d2d2d2d2d2d2d2d2d2d2d2d2d815250613274565b5f8054604080518381526020810191829052633cf3645360e21b9091526001600160a01b039091169063f3cd914c906107d6908790879060248101614c64565b6020604051808303815f875af11580156107f2573d5f803e3d5ffd5b505050506040513d601f19601f820116820180604052508101906108169190614d05565b905061084c60405180604001604052806006815260200165064656c7461360d41b8152506108448360801d90565b600f0b6132ba565b6108786040518060400160405280600681526020016564656c74613160d01b81525061084483600f0b90565b5f6108838260801d90565b600f0b13156109e4576108c060405180604001604052806013815260200172064656c74612e616d6f756e74302829203e203606c1b815250613274565b5f546001600160a01b0316630b0d9c096108dd6020870187614d1c565b306108e88560801d90565b6040516001600160e01b031960e086901b1681526001600160a01b039384166004820152929091166024830152600f0b60448201526064015f604051808303815f87803b158015610937575f80fd5b505af1158015610949573d5f803e3d5ffd5b505050506109e46040518060600160405280602d8152602001615f88602d91396109766020870187614d1c565b6040516370a0823160e01b81523060048201526001600160a01b0391909116906370a08231906024015b602060405180830381865afa1580156109bb573d5f803e3d5ffd5b505050506040513d601f19601f820116820180604052508101906109df9190614d05565b613303565b5f6109ef82600f0b90565b600f0b1315610ae857610a2c60405180604001604052806013815260200172064656c74612e616d6f756e74312829203e203606c1b815250613274565b5f546001600160a01b0316630b0d9c09610a4c6040870160208801614d1c565b30610a5785600f0b90565b6040516001600160e01b031960e086901b1681526001600160a01b039384166004820152929091166024830152600f0b60448201526064015f604051808303815f87803b158015610aa6575f80fd5b505af1158015610ab8573d5f803e3d5ffd5b50505050610ae86040518060600160405280602c8152602001615f09602c91396109766040870160208801614d1c565b5f610af38260801d90565b600f0b1215610ce457610b3060405180604001604052806013815260200172064656c74612e616d6f756e74302829203c203606c1b815250613274565b5f546001600160a01b031663a5841194610b4d6020870187614d1c565b6040516001600160e01b031960e084901b1681526001600160a01b0390911660048201526024015f604051808303815f87803b158015610b8b575f80fd5b505af1158015610b9d573d5f803e3d5ffd5b50610baf925050506020850185614d1c565b5f546001600160a01b039182169163a9059cbb9116610bce8460801d90565b610bd790614d4b565b6040516001600160e01b031960e085901b1681526001600160a01b039092166004830152600f0b60248201526044016020604051808303815f875af1158015610c22573d5f803e3d5ffd5b505050506040513d601f19601f82011682018060405250810190610c469190614d78565b505f8054906101000a90046001600160a01b03166001600160a01b03166311da60b46040518163ffffffff1660e01b81526004016020604051808303815f875af1158015610c96573d5f803e3d5ffd5b505050506040513d601f19601f82011682018060405250810190610cba9190614d05565b50610ce46040518060600160405280602d8152602001615f88602d91396109766020870187614d1c565b5f610cef82600f0b90565b600f0b1215610ee957610d2c60405180604001604052806013815260200172064656c74612e616d6f756e74312829203c203606c1b815250613274565b5f546001600160a01b031663a5841194610d4c6040870160208801614d1c565b6040516001600160e01b031960e084901b1681526001600160a01b0390911660048201526024015f604051808303815f87803b158015610d8a575f80fd5b505af1158015610d9c573d5f803e3d5ffd5b50610db1925050506040850160208601614d1c565b5f546001600160a01b039182169163a9059cbb9116610dd084600f0b90565b610dd990614d4b565b6040516001600160e01b031960e085901b1681526001600160a01b039092166004830152600f0b60248201526044016020604051808303815f875af1158015610e24573d5f803e3d5ffd5b505050506040513d601f19601f82011682018060405250810190610e489190614d78565b505f8054906101000a90046001600160a01b03166001600160a01b03166311da60b46040518163ffffffff1660e01b81526004016020604051808303815f875af1158015610e98573d5f803e3d5ffd5b505050506040513d601f19601f82011682018060405250810190610ebc9190614d05565b50610ee96040518060600160405280602c8152602001615f09602c91396109766040870160208801614d1c565b90505b92915050565b5f8080336001600160a01b037f00000000000000000000000000000000000000000000000000000000000000001614610f3e5760405163570c108560e11b815260040160405180910390fd5b610f4b8888888888613348565b925092509250955095509592505050565b5f80826001600160a01b031663313ce5676040518163ffffffff1660e01b8152600401602060405180830381865afa158015610f9a573d5f803e3d5ffd5b505050506040513d601f19601f82011682018060405250810190610fbe9190614d93565b60ff169050610ff86040518060400160405280601381526020017231b7b63630ba32b930b62232b1b4b6b0b6399d60691b81525082613303565b5f8661100c87670de0b6b3a7640000614db3565b6110169190614dde565b9050611040604051806040016040528060068152602001653930ba34b79d60d11b81525082613303565b5f61104a826134e0565b90506110766040518060400160405280600881526020016736372930ba34b79d60c11b815250826132ba565b5f670de0b6b3a764000061108a8884614df1565b6110949190614e20565b90506110c56040518060400160405280600d81526020016c39b1b0b632b22932b9bab63a1d60991b815250826132ba565b9998505050505050505050565b5f83815260056020818152604080842081516101c08101835281546001600160a01b0390811661012083019081526001840154808316610140850152600160a01b80820462ffffff16610160860152600160b81b909104600290810b6101808601528086015484166101a08601529184526003850154831696840196909652600484015482169483019490945294820154851660608201526006820154948516608082015293909260a0850192910460ff1690811115611194576111946148ae565b60028111156111a5576111a56148ae565b81526006820154600160a81b900460ff161515602082015260078201546040808301919091526008909201546001600160a01b0390811660609092019190915290516368b6391760e11b81529192505f9182917f0000000000000000000000000000000000000000000000000000000000000000169063d16c722e9061123390869089908990600401614e4c565b60408051808303815f875af115801561124e573d5f803e3d5ffd5b505050506040513d601f19601f820116820180604052508101906112729190614e76565b915091506112b56040518060400160405280601481526020017f636f6c6c61746572616c4e65656465643a202564000000000000000000000000815250836132ba565b6112f46040518060400160405280601881526020017f6f70706f73697465546f6b656e73546f4d696e743a202564000000000000000081525082613303565b5f82131561179a576101008301516040516323b872dd60e01b8152336004820152306024820152604481018490526001600160a01b03909116906323b872dd906064016020604051808303815f875af1158015611353573d5f803e3d5ffd5b505050506040513d601f19601f820116820180604052508101906113779190614d78565b506113b66040518060400160405280601a81526020017f636f6c6c61746572616c2074616b656e2066726f6d2075736572000000000000815250613274565b84156114ae5760808301516040516340c10f1960e01b8152306004820152602481018390526001600160a01b03909116906340c10f19906044015f604051808303815f87803b158015611407575f80fd5b505af1158015611419573d5f803e3d5ffd5b5050505061145b6040518060400160405280601981526020017f4e4f2028746f6b656e312920746f6b656e73206d696e74656400000000000000815250613274565b6114a96040518060600160405280602f8152602001615e88602f913960808501516040516370a0823160e01b81523060048201526001600160a01b03909116906370a08231906024016109a0565b61159b565b60608301516040516340c10f1960e01b8152306004820152602481018390526001600160a01b03909116906340c10f19906044015f604051808303815f87803b1580156114f9575f80fd5b505af115801561150b573d5f803e3d5ffd5b5050505061154d6040518060400160405280601a81526020017f5945532028746f6b656e302920746f6b656e73206d696e746564000000000000815250613274565b61159b604051806060016040528060308152602001615ed96030913960608501516040516370a0823160e01b81523060048201526001600160a01b03909116906370a08231906024016109a0565b5f856115be5760016115af620d89e861357a565b6115b99190614e98565b6115d6565b6115cb620d89e71961357a565b6115d6906001614eb7565b90505f6115f1855f01518815856115ec90614ed6565b613832565b90508360055f8a81526020019081526020015f206007015f8282546116169190614ef0565b909155505086156116dc5761165f6040518060400160405280601a81526020017f676976696e67206261636b20746f6b656e7320746f2075736572000000000000815250613274565b606085015160405163a9059cbb60e01b8152336004820152600f88900b60248201526001600160a01b039091169063a9059cbb906044016020604051808303815f875af11580156116b2573d5f803e3d5ffd5b505050506040513d601f19601f820116820180604052508101906116d69190614d78565b50611793565b61171a6040518060400160405280601a81526020017f676976696e67206261636b20746f6b656e7320746f2075736572000000000000815250613274565b608085015160405163a9059cbb60e01b8152336004820152600f88900b60248201526001600160a01b039091169063a9059cbb906044016020604051808303815f875af115801561176d573d5f803e3d5ffd5b505050506040513d601f19601f820116820180604052508101906117919190614d78565b505b5050611a82565b6101008301516001600160a01b031663a9059cbb336117b885614ed6565b6040516001600160e01b031960e085901b1681526001600160a01b03909216600483015260248201526044016020604051808303815f875af1158015611800573d5f803e3d5ffd5b505050506040513d601f19601f820116820180604052508101906118249190614d78565b50841561192a576118696040518060400160405280601b81526020017f696e736964652065786563757465537761702073656c6c205945530000000000815250613274565b61188e604051806060016040528060308152602001615f356030913985600f0b6132ba565b60608301516001600160a01b03166323b872dd33306118ac88614d4b565b6040516001600160e01b031960e086901b1681526001600160a01b039384166004820152929091166024830152600f0b60448201526064016020604051808303815f875af1158015611900573d5f803e3d5ffd5b505050506040513d601f19601f820116820180604052508101906119249190614d78565b50611a00565b6119686040518060400160405280601a81526020017f696e736964652065786563757465537761702073656c6c204e4f000000000000815250613274565b60808301516001600160a01b03166323b872dd333061198688614d4b565b6040516001600160e01b031960e086901b1681526001600160a01b039384166004820152929091166024830152600f0b60448201526064016020604051808303815f875af11580156119da573d5f803e3d5ffd5b505050506040513d601f19601f820116820180604052508101906119fe9190614d78565b505b5f85611a23576001611a14620d89e861357a565b611a1e9190614e98565b611a3b565b611a30620d89e71961357a565b611a3b906001614eb7565b90505f611a4f855f01518888600f0b613832565b9050611a5a84614ed6565b5f8981526005602052604081206007018054909190611a7a908490614f03565b909155505050505b505050505050565b5f80336001600160a01b037f00000000000000000000000000000000000000000000000000000000000000001614611ad55760405163570c108560e11b815260040160405180910390fd5b611ae489898989898989613b05565b9150915097509795505050505050565b5f828152600560205260409020600301546001600160a01b03163314611b2d57604051631bc2178f60e01b815260040160405180910390fd5b5f8083815260056020526040902060060154600160a01b900460ff166002811115611b5a57611b5a6148ae565b14611b785760405163aa43cb2d60e01b815260040160405180910390fd5b5f918252600560205260409091206006018054600160a01b921515600160a81b0261ffff60a01b1990911617919091179055565b5f336001600160a01b037f00000000000000000000000000000000000000000000000000000000000000001614611bf65760405163570c108560e11b815260040160405180910390fd5b61062585858585613b20565b5f80604051611c109061449a565b6040808252600a90820152694d61726b65742059455360b01b60608201526080602082018190526003908201526259455360e81b60a082015260c001604051809103905ff080158015611c65573d5f803e3d5ffd5b5090505f604051611c759061449a565b6040808252600990820152684d61726b6574204e4f60b81b6060820152608060208201819052600290820152614e4f60f01b60a082015260c001604051809103905ff080158015611cc8573d5f803e3d5ffd5b506040805160a0810182526001600160a01b03808616825280841660208301526127109282019290925260646060820152306080820152919250861615801590611d1157505f85115b15611d8c576040516323b872dd60e01b8152336004820152306024820152604481018690526001600160a01b038716906323b872dd906064016020604051808303815f875af1158015611d66573d5f803e3d5ffd5b505050506040513d601f19601f82011682018060405250810190611d8a9190614d78565b505b604051638a8801c960e01b81526001600160a01b037f00000000000000000000000000000000000000000000000000000000000000001690638a8801c990611dd8908490600401614f16565b60a0604051808303815f875af1158015611df4573d5f803e3d5ffd5b505050506040513d601f19601f82011682018060405250810190611e189190614f7e565b5060a08120611e4d6040518060400160405280600f81526020016e19995d18da1a5b99c81c1bdbdb1259608a1b815250613274565b6040518061012001604052808381526020018a6001600160a01b03168152602001896001600160a01b03168152602001856001600160a01b03168152602001846001600160a01b031681526020015f6002811115611ead57611ead6148ae565b81525f602080830182905260408084018b90526001600160a01b03808d166060958601528684526005808452938290208651805182549084166001600160a01b03199182161783558186015160018401805484880151858c015162ffffff908116600160b81b0262ffffff60b81b1991909216600160a01b90810276ffffffffffffffffffffffffffffffffffffffffffffff19909416958a169590951792909217919091161790556080928301516002808601805492881692851692909217909155968a0151600385018054918716918416919091179055948901516004840180549186169183169190911790559688015195820180549684169688169690961790955593860151600685018054919092169581168617825560a08701519495919374ffffffffffffffffffffffffffffffffffffffffff1990911690911791908490811115612000576120006148ae565b021790555060c082015160068201805460ff60a81b1916600160a81b9215159290920291909117905560e0820151600782015561010090910151600890910180546001600160a01b0319166001600160a01b0390921691909117905560408051808201909152600e81526d13585c9ad95d0818dc99585d195960921b602082015261208a90613274565b600380545f908152600460205260408120839055815491906120ab83614ff8565b90915550909998505050505050505050565b604080516101c0810182525f61012082018181526101408301829052610160830182905261018083018290526101a08301829052825260208201819052918101829052606081018290526080810182905260a0810182905260c0810182905260e081018290526101008101919091525f8281526005602081815260409283902083516101c08101855281546001600160a01b0390811661012083019081526001840154808316610140850152600160a01b80820462ffffff16610160860152600160b81b909104600290810b6101808601528086015484166101a08601529184526003850154831695840195909552600484015482169683019690965293820154841660608201526006820154938416608082015293909260a0850192900460ff16908111156121ef576121ef6148ae565b6002811115612200576122006148ae565b81526006820154600160a81b900460ff1615156020820152600782015460408201526008909101546001600160a01b031660609091015292915050565b5f80336001600160a01b037f000000000000000000000000000000000000000000000000000000000000000016146122885760405163570c108560e11b815260040160405180910390fd5b612296888888888888613b05565b91509150965096945050505050565b5f336001600160a01b037f000000000000000000000000000000000000000000000000000000000000000016146122ef5760405163570c108560e11b815260040160405180910390fd5b6122fd878787878787613b20565b979650505050505050565b5f818152600560205260409020600301546001600160a01b0316331461234157604051631bc2178f60e01b815260040160405180910390fd5b5f8082815260056020526040902060060154600160a01b900460ff16600281111561236e5761236e6148ae565b1461238c5760405163aa43cb2d60e01b815260040160405180910390fd5b5f908152600560205260409020600601805460ff60a01b1916600160a11b179055565b5f336001600160a01b037f000000000000000000000000000000000000000000000000000000000000000016146123f95760405163570c108560e11b815260040160405180910390fd5b612404848484613b20565b90505b9392505050565b5f81815260056020818152604080842081516101c08101835281546001600160a01b0390811661012083019081526001840154808316610140850152600160a01b80820462ffffff16610160860152600160b81b909104600290810b6101808601528086015484166101a08601529184526003850154831696840196909652600484015482169483019490945294820154851660608201526006820154948516608082015293909260a0850192910460ff16908111156124d0576124d06148ae565b60028111156124e1576124e16148ae565b81526006820154600160a81b900460ff1615156020820152600782015460408201526008909101546001600160a01b0316606090910152905060018160a001516002811115612532576125326148ae565b146125505760405163174b639360e11b815260040160405180910390fd5b5f82815260066020908152604080832033845290915290205460ff161561258a57604051630c8d9eab60e31b815260040160405180910390fd5b5f8160c00151156126085760608201516040516370a0823160e01b81523360048201526001600160a01b03909116906370a0823190602401602060405180830381865afa1580156125dd573d5f803e3d5ffd5b505050506040513d601f19601f820116820180604052508101906126019190614d05565b9050612677565b60808201516040516370a0823160e01b81523360048201526001600160a01b03909116906370a0823190602401602060405180830381865afa158015612650573d5f803e3d5ffd5b505050506040513d601f19601f820116820180604052508101906126749190614d05565b90505b805f036126965760405162f3f86160e41b815260040160405180910390fd5b5f8260c001516127255760075f8581526020019081526020015f205483608001516001600160a01b03166318160ddd6040518163ffffffff1660e01b8152600401602060405180830381865afa1580156126f2573d5f803e3d5ffd5b505050506040513d601f19601f820116820180604052508101906127169190614d05565b6127209190614f03565b6127a5565b60075f8581526020019081526020015f205483606001516001600160a01b03166318160ddd6040518163ffffffff1660e01b8152600401602060405180830381865afa158015612777573d5f803e3d5ffd5b505050506040513d601f19601f8201168201806040525081019061279b9190614d05565b6127a59190614f03565b90505f81838560e001516127b99190614db3565b6127c39190614dde565b90508360c00151156128725760608401516040516323b872dd60e01b8152336004820152306024820152604481018590526001600160a01b03909116906323b872dd906064016020604051808303815f875af1158015612825573d5f803e3d5ffd5b505050506040513d601f19601f820116820180604052508101906128499190614d78565b505f8581526007602052604081208054859290612867908490614ef0565b909155506129109050565b60808401516040516323b872dd60e01b8152336004820152306024820152604481018590526001600160a01b03909116906323b872dd906064016020604051808303815f875af11580156128c8573d5f803e3d5ffd5b505050506040513d601f19601f820116820180604052508101906128ec9190614d78565b505f858152600760205260408120805485929061290a908490614ef0565b90915550505b5f8581526006602090815260408083203384528252808320805460ff19166001179055878352600590915281206007018054839290612950908490614f03565b909155505061010084015160405163a9059cbb60e01b8152336004820152602481018390526001600160a01b039091169063a9059cbb906044016020604051808303815f875af11580156129a6573d5f803e3d5ffd5b505050506040513d601f19601f82011682018060405250810190611a829190614d78565b5f6129d45f61357a565b9050612a1e6040518060400160405280601681526020017f506f6f6c20707269636520535152545839363a20256400000000000000000000815250826001600160a01b0316613303565b5f82815260056020819052604091829020015490516340c10f1960e01b815230600482015268056bc75e2d6310000060248201819052916001600160a01b0316906340c10f19906044015f604051808303815f87803b158015612a7f575f80fd5b505af1158015612a91573d5f803e3d5ffd5b5050505f84815260056020526040908190206006015490516340c10f1960e01b8152306004820152602481018490526001600160a01b0390911691506340c10f19906044015f604051808303815f87803b158015612aed575f80fd5b505af1158015612aff573d5f803e3d5ffd5b50505050612b416040518060400160405280601d81526020017f417070726f76696e67206f7574636f6d6520746f6b656e7320746f2070000000815250613274565b60408051808201909152600e81526d30b2323932b9b9943837b9b6949d60911b6020820152600154612b7c91906001600160a01b0316613b3a565b5f838152600560208190526040918290200154600154915163095ea7b360e01b81526001600160a01b0392831660048201525f19602482015291169063095ea7b3906044016020604051808303815f875af1158015612bdd573d5f803e3d5ffd5b505050506040513d601f19601f82011682018060405250810190612c019190614d78565b505f838152600560205260409081902060060154600154915163095ea7b360e01b81526001600160a01b0392831660048201525f19602482015291169063095ea7b3906044016020604051808303815f875af1158015612c63573d5f803e3d5ffd5b505050506040513d601f19601f82011682018060405250810190612c879190614d78565b505f612cad83612c9a620d89e71961357a565b612ca6620d89e861357a565b8586613b7f565b90505f80612cf585612cd5612cd0600260149054906101000a900460020b613c34565b61357a565b60028054612cef91612cd091600160a01b9004900b613c55565b86613c6d565b91509150612d2b6040518060400160405280601081526020016f185b5bdd5b9d0c10da1958dace88095960821b81525083613303565b612d5d6040518060400160405280601081526020016f185b5bdd5b9d0c50da1958dace88095960821b81525082613303565b6001545f8781526005602052604090819020815160808101909252600280546001600160a01b0390941693635a6bcfda93918291612da491600160a01b909104900b613c34565b60020b8152602001612dc4600260149054906101000a900460020b613c55565b60020b81526001600160801b0388166020808301919091525f60409283018190528251908152908101918290526001600160e01b031960e086901b16909152612e1292919060248101615010565b6020604051808303815f875af1158015612e2e573d5f803e3d5ffd5b505050506040513d601f19601f82011682018060405250810190612e529190614d05565b50505050505050565b5f80612e76612e6f368890038801886150a2565b60a0902090565b5f81815260056020818152604080842081516101c08101835281546001600160a01b0390811661012083019081526001840154808316610140850152600160a01b80820462ffffff16610160860152600160b81b909104600290810b6101808601528086015484166101a0860152918452600385015483169684019690965260048401548216948301949094529482015485166060820152600682015494851660808201529596509394939260a0850192900460ff1690811115612f3c57612f3c6148ae565b6002811115612f4d57612f4d6148ae565b81526006820154600160a81b900460ff1615156020820152600782015460408201526008909101546001600160a01b031660609091015290505f8160a001516002811115612f9d57612f9d6148ae565b14612fe35760405162461bcd60e51b81526020600482015260116024820152704d61726b6574206e6f742061637469766560781b60448201526064015b60405180910390fd5b60018160a001516002811115612ffb57612ffb6148ae565b1461301957604051631486641d60e31b815260040160405180910390fd5b5063021d0ee760e41b979650505050505050565b5f80613041612e6f368890038801886150a2565b5f81815260056020818152604080842081516101c08101835281546001600160a01b0390811661012083019081526001840154808316610140850152600160a01b80820462ffffff16610160860152600160b81b909104600290810b6101808601528086015484166101a0860152918452600385015483169684019690965260048401548216948301949094529482015485166060820152600682015494851660808201529596509394939260a0850192900460ff1690811115613107576131076148ae565b6002811115613118576131186148ae565b81526006820154600160a81b900460ff1615156020820152600782015460408201526008909101546001600160a01b031660609091015290505f8160a001516002811115613168576131686148ae565b146131a95760405162461bcd60e51b81526020600482015260116024820152704d61726b6574206e6f742061637469766560781b6044820152606401612fda565b600280546131c091600160a01b909104900b613c34565b60020b6131d06020880188615110565b60020b14801561320a5750600280546131f291600160a01b909104900b613c55565b60020b6132056040880160208901615110565b60020b145b6132605760405162461bcd60e51b815260206004820152602160248201527f4f6e6c792066756c6c2072616e676520706f736974696f6e7320616c6c6f77656044820152601960fa1b6064820152608401612fda565b5063259982e560e01b979650505050505050565b6132b781604051602401613288919061512b565b60408051601f198184030181529190526020810180516001600160e01b031663104c13eb60e21b179052613d08565b50565b6132ff82826040516024016132d092919061513d565b60408051601f198184030181529190526020810180516001600160e01b0316631e53134760e11b179052613d08565b5050565b6132ff828260405160240161331992919061513d565b60408051601f198184030181529190526020810180516001600160e01b0316632d839cb360e21b179052613d08565b5f80808061335e612e6f368a90038a018a6150a2565b5f81815260056020818152604080842081516101c08101835281546001600160a01b0390811661012083019081526001840154808316610140850152600160a01b80820462ffffff16610160860152600160b81b909104600290810b6101808601528086015484166101a0860152918452600385015483169684019690965260048401548216948301949094529482015485166060820152600682015494851660808201529596509394939260a0850192900460ff1690811115613424576134246148ae565b6002811115613435576134356148ae565b81526006820154600160a81b900460ff1615156020820152600782015460408201526008909101546001600160a01b031660609091015290505f8160a001516002811115613485576134856148ae565b146134c65760405162461bcd60e51b81526020600482015260116024820152704d61726b6574206e6f742061637469766560781b6044820152606401612fda565b506315d7892d60e21b995f99508998509650505050505050565b5f80821361350157604051632d0483c560e21b815260040160405180910390fd5b8161351c67016345785d8a0000670de0b6b3a764000061515e565b128015613541575061353e670de0b6b3a764000067016345785d8a000061517d565b82125b1561356c57670de0b6b3a764000061355883613d11565b8161356557613565614dca565b0592915050565b610eec82613e2e565b919050565b60020b5f60ff82901d80830118620d89e88111156135a3576135a36345c3193d60e11b846141dc565b7001fffcb933bd6fad37aa2d162d1a5940016001821602600160801b1860028216156135df576ffff97272373d413259a46990580e213a0260801c5b60048216156135fe576ffff2e50f5f656932ef12357cf3c7fdcc0260801c5b600882161561361d576fffe5caca7e10e4e61c3624eaa0941cd00260801c5b601082161561363c576fffcb9843d60f6159c9db58835c9266440260801c5b602082161561365b576fff973b41fa98c081472e6896dfb254c00260801c5b604082161561367a576fff2ea16466c96a3843ec78b326b528610260801c5b6080821615613699576ffe5dee046a99a2a811c461f1969c30530260801c5b6101008216156136b9576ffcbe86c7900a88aedcffc83b479aa3a40260801c5b6102008216156136d9576ff987a7253ac413176f2b074cf7815e540260801c5b6104008216156136f9576ff3392b0822b70005940c7a398e4b70f30260801c5b610800821615613719576fe7159475a2c29b7443b29c7fa6e889d90260801c5b611000821615613739576fd097f3bdfd2022b8845ad8f792aa58250260801c5b612000821615613759576fa9f746462d870fdf8a65dc1f90e061e50260801c5b614000821615613779576f70d869a156d2a1b890bb3df62baf32f70260801c5b618000821615613799576f31be135f97d08fd981231505542fcfa60260801c5b620100008216156137ba576f09aa508b5b7a84e1c677de54f3e99bc90260801c5b620200008216156137da576e5d6af8dedb81196699c329225ee6040260801c5b620400008216156137f9576d2216e584f5fa1ea926041bedfe980260801c5b62080000821615613816576b048a170391f7dc42444e8fa20260801c5b5f841315613822575f19045b63ffffffff0160201c9392505050565b5f6138716040518060400160405280602081526020017f2d2d2d2d2d2d2d2d2d2d2d2d2d2d2d2d2d2d2d2d2d2d2d2d2d2d2d2d2d2d2d2d815250613274565b6138a16040518060400160405280600f81526020016e0696e736964652066696c6c5377617608c1b815250613274565b6138df6040518060400160405280602081526020017f2d2d2d2d2d2d2d2d2d2d2d2d2d2d2d2d2d2d2d2d2d2d2d2d2d2d2d2d2d2d2d2d815250613274565b61390d6040518060400160405280600c81526020016b185b5bdd5b9d125b8e88095960a21b815250836132ba565b61393d6040518060400160405280600e81526020016d1e995c9bd19bdc93db994e88095960921b815250846141eb565b5f604051806060016040528085151581526020018481526020018561397957600161396a620d89e861357a565b6139749190614e98565b613991565b613986620d89e71961357a565b613991906001614eb7565b6001600160a01b031681525090506139ea604051806060016040528060238152602001615f656023913986516040516370a0823160e01b81523060048201526001600160a01b03909116906370a08231906024016109a0565b613a38604051806060016040528060228152602001615eb76022913960208701516040516370a0823160e01b81523060048201526001600160a01b03909116906370a08231906024016109a0565b5f80546040516001600160a01b03909116906348c89491903090633e0b623790613a68908b9088906024016151a4565b60408051808303601f1901815291815260208201805160e094851b6001600160e01b03909116179052519184901b6001600160e01b0319168252613ab092509060040161512b565b5f604051808303815f875af1158015613acb573d5f803e3d5ffd5b505050506040513d5f823e601f3d908101601f19168201604052613af291908101906151e0565b8060200190518101906106859190614d05565b5f80604051630a85dc2960e01b815260040160405180910390fd5b5f604051630a85dc2960e01b815260040160405180910390fd5b6132ff8282604051602401613b50929190615274565b60408051601f198184030181529190526020810180516001600160e01b031663319af33360e01b179052613d08565b5f836001600160a01b0316856001600160a01b03161115613b9e579293925b846001600160a01b0316866001600160a01b031611613bc957613bc2858585614230565b9050610625565b836001600160a01b0316866001600160a01b03161015613c29575f613bef878686614230565b90505f613bfd878986614298565b9050806001600160801b0316826001600160801b031610613c1e5780613c20565b815b92505050610625565b610685858584614298565b5f81600281900b620d89e71981613c4d57613c4d614dca565b050292915050565b5f81600281900b620d89e881613c4d57613c4d614dca565b5f80836001600160a01b0316856001600160a01b03161115613c8d579293925b846001600160a01b0316866001600160a01b031611613cb857613cb18585856142cd565b9150613cff565b836001600160a01b0316866001600160a01b03161015613cf157613cdd8685856142cd565b9150613cea858785614348565b9050613cff565b613cfc858585614348565b90505b94509492505050565b6132b781614391565b670de0b6b3a7640000025f806a0c097ce7bc90715b34b9f160241b808401906ec097ce7bc90715b34b9f0fffffffff1985010281613d5157613d51614dca565b0590505f6a0c097ce7bc90715b34b9f160241b82800205905081806a0c097ce7bc90715b34b9f160241b81840205915060038205016a0c097ce7bc90715b34b9f160241b82840205915060058205016a0c097ce7bc90715b34b9f160241b82840205915060078205016a0c097ce7bc90715b34b9f160241b82840205915060098205016a0c097ce7bc90715b34b9f160241b828402059150600b8205016a0c097ce7bc90715b34b9f160241b828402059150600d8205016a0c097ce7bc90715b34b9f160241b828402059150600f82050160020295945050505050565b5f80670de0b6b3a7640000831215613e6557826a0c097ce7bc90715b34b9f160241b81613e5d57613e5d614dca565b059250600190505b5f7e1600ef3172e58d2e933ec884fde10064c63b5372d805e203c00000000000008412613eb557770195e54c5dd42177f53a27172fa9ec630262827000000000840593506806f05b59d3b2000000015b73011798004d755d3c8bc8e03204cf44619e0000008412613eed576b1425982cf597cd205cef7380840593506803782dace9d9000000015b606493840293026e01855144814a7ff805980ff00840008412613f35576e01855144814a7ff805980ff008400068056bc75e2d63100000850205935068ad78ebc5ac62000000015b6b02df0ab5a80a22c61ab5a7008412613f70576b02df0ab5a80a22c61ab5a70068056bc75e2d6310000085020593506856bc75e2d631000000015b693f1fce3da636ea5cf8508412613fa757693f1fce3da636ea5cf85068056bc75e2d631000008502059350682b5e3af16b18800000015b690127fa27722cc06cc5e28412613fde57690127fa27722cc06cc5e268056bc75e2d6310000085020593506815af1d78b58c400000015b68280e60114edb805d0384126140135768280e60114edb805d0368056bc75e2d631000008502059350680ad78ebc5ac6200000015b680ebc5fb41746121110841261403e57680ebc5fb4174612111068056bc75e2d631000009485020593015b6808f00f760a4b2db55d8412614073576808f00f760a4b2db55d68056bc75e2d6310000085020593506802b5e3af16b1880000015b6806f5f177578893793784126140a8576806f5f177578893793768056bc75e2d63100000850205935068015af1d78b58c40000015b6806248f33704b28660384126140dc576806248f33704b28660368056bc75e2d63100000850205935067ad78ebc5ac620000015b6805c548670b9510e7ac8412614110576805c548670b9510e7ac68056bc75e2d6310000085020593506756bc75e2d6310000015b5f68056bc75e2d63100000850168056bc75e2d63100000808703028161413857614138614dca565b0590505f68056bc75e2d63100000828002059050818068056bc75e2d63100000818402059150600382050168056bc75e2d63100000828402059150600582050168056bc75e2d63100000828402059150600782050168056bc75e2d63100000828402059150600982050168056bc75e2d63100000828402059150600b8205016002025f6064868301059050866141ce57806110c5565b5f0398975050505050505050565b815f528060020b60045260245ffd5b6132ff828260405160240161420192919061529e565b60408051601f198184030181529190526020810180516001600160e01b031663c3b5563560e01b179052613d08565b5f826001600160a01b0316846001600160a01b0316111561424f579192915b5f614271856001600160a01b0316856001600160a01b0316600160601b6143b0565b905061062561429384836142858989614e98565b6001600160a01b03166143b0565b61444c565b5f826001600160a01b0316846001600160a01b031611156142b7579192915b61240461429383600160601b6142858888614e98565b5f826001600160a01b0316846001600160a01b031611156142ec579192915b6001600160a01b03841661433e7bffffffffffffffffffffffffffffffff000000000000000000000000606085901b166143268787614e98565b6001600160a01b0316866001600160a01b03166143b0565b6124049190614dde565b5f826001600160a01b0316846001600160a01b03161115614367579192915b6124046001600160801b03831661437e8686614e98565b6001600160a01b0316600160601b6143b0565b5f6a636f6e736f6c652e6c6f6790505f80835160208501845afa505050565b5f838302815f19858709828110838203039150508084116143cf575f80fd5b805f036143e157508290049050612407565b5f848688095f868103871696879004966002600389028118808a02820302808a02820302808a02820302808a02820302808a02820302808a02909103029181900381900460010186841190950394909402919094039290920491909117919091029150509392505050565b806001600160801b03811681146135755760405162461bcd60e51b81526020600482015260126024820152716c6971756964697479206f766572666c6f7760701b6044820152606401612fda565b610bc6806152c283390190565b6001600160a01b03811681146132b7575f80fd5b5f805f80608085870312156144ce575f80fd5b84356144d9816144a7565b935060208501356144e9816144a7565b925060408501356144f9816144a7565b9396929550929360600135925050565b5f60a08284031215614519575f80fd5b50919050565b5f60808284031215614519575f80fd5b5f8083601f84011261453f575f80fd5b50813567ffffffffffffffff811115614556575f80fd5b60208301915083602082850101111561456d575f80fd5b9250929050565b5f805f805f6101608688031215614589575f80fd5b8535614594816144a7565b94506145a38760208801614509565b93506145b28760c0880161451f565b925061014086013567ffffffffffffffff8111156145ce575f80fd5b6145da8882890161452f565b969995985093965092949392505050565b5f60608284031215614519575f80fd5b5f80610100838503121561460d575f80fd5b6146178484614509565b91506146268460a085016145eb565b90509250929050565b5f805f805f6101408688031215614644575f80fd5b853561464f816144a7565b945061465e8760208801614509565b935061466d8760c088016145eb565b925061012086013567ffffffffffffffff8111156145ce575f80fd5b5f805f805f60a0868803121561469d575f80fd5b8535945060208601359350604086013592506060860135915060808601356146c4816144a7565b809150509295509295909350565b80151581146132b7575f80fd5b5f805f606084860312156146f1575f80fd5b833592506020840135614703816146d2565b91506040840135600f81900b8114614719575f80fd5b809150509250925092565b5f805f805f805f6101a0888a03121561473b575f80fd5b8735614746816144a7565b96506147558960208a01614509565b95506147648960c08a0161451f565b94506101408801359350610160880135925061018088013567ffffffffffffffff811115614790575f80fd5b61479c8a828b0161452f565b989b979a50959850939692959293505050565b5f80604083850312156147c0575f80fd5b8235915060208301356147d2816146d2565b809150509250929050565b8060020b81146132b7575f80fd5b5f805f8061010085870312156147ff575f80fd5b843561480a816144a7565b93506148198660208701614509565b925060c0850135614829816144a7565b915060e0850135614839816147dd565b939692955090935050565b5f60208284031215614854575f80fd5b5035919050565b6001600160a01b0381511682526001600160a01b03602082015116602083015262ffffff6040820151166040830152606081015160020b60608301526001600160a01b0360808201511660808301525050565b634e487b7160e01b5f52602160045260245ffd5b600381106148de57634e487b7160e01b5f52602160045260245ffd5b9052565b6148ed82825161485b565b60208101516001600160a01b0390811660a0848101919091526040830151821660c08501526060830151821660e0850152608083015190911661010084015281015161493d6101208401826148c2565b5060c0810151151561014083015260e081015161016083015261010001516001600160a01b031661018090910152565b6101a08101610eec82846148e2565b5f806040838503121561498d575f80fd5b8235915060208301356147d2816144a7565b5f805f805f8061016087890312156149b5575f80fd5b86356149c0816144a7565b95506149cf8860208901614509565b94506149de8860c089016145eb565b9350610120870135925061014087013567ffffffffffffffff811115614a02575f80fd5b614a0e89828a0161452f565b979a9699509497509295939492505050565b5f805f805f806101208789031215614a36575f80fd5b8635614a41816144a7565b9550614a508860208901614509565b945060c0870135935060e0870135925061010087013567ffffffffffffffff811115614a02575f80fd5b8151151581526101c081016020830151614a98602084018215159052565b506040830151614aac604084018215159052565b506060830151614ac0606084018215159052565b506080830151614ad4608084018215159052565b5060a0830151614ae860a084018215159052565b5060c0830151614afc60c084018215159052565b5060e0830151614b1060e084018215159052565b50610100830151614b2661010084018215159052565b50610120830151614b3c61012084018215159052565b50610140830151614b5261014084018215159052565b50610160830151614b6861016084018215159052565b50610180830151614b7e61018084018215159052565b506101a0830151614b946101a084018215159052565b5092915050565b5f805f60e08486031215614bad575f80fd5b8335614bb8816144a7565b9250614bc78560208601614509565b915060c0840135614719816144a7565b634e487b7160e01b5f52604160045260245ffd5b62ffffff811681146132b7575f80fd5b8035614c06816146d2565b15158252602081810135908301526040810135614c22816144a7565b6001600160a01b0381166040840152505050565b5f81518084528060208401602086015e5f602082860101526020601f19601f83011685010191505092915050565b5f8435614c70816144a7565b6001600160a01b031682526020850135614c89816144a7565b6001600160a01b031660208301526040850135614ca581614beb565b62ffffff1660408301526060850135614cbd816147dd565b60020b60608301526080850135614cd3816144a7565b6001600160a01b03166080830152614cee60a0830185614bfb565b610120610100830152610625610120830184614c36565b5f60208284031215614d15575f80fd5b5051919050565b5f60208284031215614d2c575f80fd5b8135610ee9816144a7565b634e487b7160e01b5f52601160045260245ffd5b5f81600f0b6f7fffffffffffffffffffffffffffffff198103614d7057614d70614d37565b5f0392915050565b5f60208284031215614d88575f80fd5b8151610ee9816146d2565b5f60208284031215614da3575f80fd5b815160ff81168114610ee9575f80fd5b8082028115828204841417610eec57610eec614d37565b634e487b7160e01b5f52601260045260245ffd5b5f82614dec57614dec614dca565b500490565b8082025f8212600160ff1b84141615614e0c57614e0c614d37565b8181058314821517610eec57610eec614d37565b5f82614e2e57614e2e614dca565b600160ff1b82145f1984141615614e4757614e47614d37565b500590565b6101e08101614e5b82866148e2565b8315156101a083015282600f0b6101c0830152949350505050565b5f8060408385031215614e87575f80fd5b505080516020909101519092909150565b6001600160a01b038281168282160390811115610eec57610eec614d37565b6001600160a01b038181168382160190811115610eec57610eec614d37565b5f600160ff1b8201614eea57614eea614d37565b505f0390565b80820180821115610eec57610eec614d37565b81810381811115610eec57610eec614d37565b60a08101610eec828461485b565b60405160a0810167ffffffffffffffff81118282101715614f4757614f47614bd7565b60405290565b604051601f8201601f1916810167ffffffffffffffff81118282101715614f7657614f76614bd7565b604052919050565b5f60a0828403128015614f8f575f80fd5b50614f98614f24565b8251614fa3816144a7565b81526020830151614fb3816144a7565b60208201526040830151614fc681614beb565b60408201526060830151614fd9816147dd565b60608201526080830151614fec816144a7565b60808201529392505050565b5f6001820161500957615009614d37565b5060010190565b83546001600160a01b0390811682526001850154808216602084015260a081811c62ffffff16604085015260b89190911c600290810b606085015286015490911660808301525f9061508b90830185805160020b8252602081015160020b602083015260408101516040830152606081015160608301525050565b610140610120830152610625610140830184614c36565b5f60a08284031280156150b3575f80fd5b506150bc614f24565b82356150c7816144a7565b815260208301356150d7816144a7565b602082015260408301356150ea81614beb565b604082015260608301356150fd816147dd565b60608201526080830135614fec816144a7565b5f60208284031215615120575f80fd5b8135610ee9816147dd565b602081525f6124076020830184614c36565b604081525f61514f6040830185614c36565b90508260208301529392505050565b8181035f831280158383131683831282161715614b9457614b94614d37565b8082018281125f83128015821682158216171561519c5761519c614d37565b505092915050565b61010081016151b3828561485b565b8251151560a0830152602083015160c08301526001600160a01b0360408401511660e08301529392505050565b5f602082840312156151f0575f80fd5b815167ffffffffffffffff811115615206575f80fd5b8201601f81018413615216575f80fd5b805167ffffffffffffffff81111561523057615230614bd7565b615243601f8201601f1916602001614f4d565b818152856020838501011115615257575f80fd5b8160208401602083015e5f91810160200191909152949350505050565b604081525f6152866040830185614c36565b90506001600160a01b03831660208301529392505050565b604081525f6152b06040830185614c36565b90508215156020830152939250505056fe608060405234801561000f575f80fd5b50604051610bc6380380610bc683398101604081905261002e91610179565b338282600361003d8382610262565b50600461004a8282610262565b5050506001600160a01b03811661007a57604051631e4fbdf760e01b81525f600482015260240160405180910390fd5b6100838161008b565b50505061031c565b600580546001600160a01b038381166001600160a01b0319831681179093556040519116919082907f8be0079c531659141344cd1fd0a4f28419497f9722a3daafe3b4186f6b6457e0905f90a35050565b634e487b7160e01b5f52604160045260245ffd5b5f82601f8301126100ff575f80fd5b81516001600160401b03811115610118576101186100dc565b604051601f8201601f19908116603f011681016001600160401b0381118282101715610146576101466100dc565b60405281815283820160200185101561015d575f80fd5b8160208501602083015e5f918101602001919091529392505050565b5f806040838503121561018a575f80fd5b82516001600160401b0381111561019f575f80fd5b6101ab858286016100f0565b602085015190935090506001600160401b038111156101c8575f80fd5b6101d4858286016100f0565b9150509250929050565b600181811c908216806101f257607f821691505b60208210810361021057634e487b7160e01b5f52602260045260245ffd5b50919050565b601f82111561025d57805f5260205f20601f840160051c8101602085101561023b5750805b601f840160051c820191505b8181101561025a575f8155600101610247565b50505b505050565b81516001600160401b0381111561027b5761027b6100dc565b61028f8161028984546101de565b84610216565b6020601f8211600181146102c1575f83156102aa5750848201515b5f19600385901b1c1916600184901b17845561025a565b5f84815260208120601f198516915b828110156102f057878501518255602094850194600190920191016102d0565b508482101561030d57868401515f19600387901b60f8161c191681555b50505050600190811b01905550565b61089d806103295f395ff3fe608060405234801561000f575f80fd5b50600436106100da575f3560e01c806370a082311161008857806395d89b411161006357806395d89b41146101b3578063a9059cbb146101bb578063dd62ed3e146101ce578063f2fde38b14610206575f80fd5b806370a0823114610168578063715018a6146101905780638da5cb5b14610198575f80fd5b806323b872dd116100b857806323b872dd14610131578063313ce5671461014457806340c10f1914610153575f80fd5b806306fdde03146100de578063095ea7b3146100fc57806318160ddd1461011f575b5f80fd5b6100e6610219565b6040516100f3919061070d565b60405180910390f35b61010f61010a36600461075d565b6102a9565b60405190151581526020016100f3565b6002545b6040519081526020016100f3565b61010f61013f366004610785565b6102c2565b604051601281526020016100f3565b61016661016136600461075d565b6102e5565b005b6101236101763660046107bf565b6001600160a01b03165f9081526020819052604090205490565b6101666102fb565b6005546040516001600160a01b0390911681526020016100f3565b6100e661030e565b61010f6101c936600461075d565b61031d565b6101236101dc3660046107df565b6001600160a01b039182165f90815260016020908152604080832093909416825291909152205490565b6101666102143660046107bf565b61032a565b60606003805461022890610810565b80601f016020809104026020016040519081016040528092919081815260200182805461025490610810565b801561029f5780601f106102765761010080835404028352916020019161029f565b820191905f5260205f20905b81548152906001019060200180831161028257829003601f168201915b5050505050905090565b5f336102b681858561036c565b60019150505b92915050565b5f336102cf85828561037e565b6102da8585856103f9565b506001949350505050565b6102ed610456565b6102f78282610483565b5050565b610303610456565b61030c5f6104b7565b565b60606004805461022890610810565b5f336102b68185856103f9565b610332610456565b6001600160a01b03811661036057604051631e4fbdf760e01b81525f60048201526024015b60405180910390fd5b610369816104b7565b50565b6103798383836001610515565b505050565b6001600160a01b038381165f908152600160209081526040808320938616835292905220545f1981146103f357818110156103e557604051637dc7a0d960e11b81526001600160a01b03841660048201526024810182905260448101839052606401610357565b6103f384848484035f610515565b50505050565b6001600160a01b03831661042257604051634b637e8f60e11b81525f6004820152602401610357565b6001600160a01b03821661044b5760405163ec442f0560e01b81525f6004820152602401610357565b6103798383836105e7565b6005546001600160a01b0316331461030c5760405163118cdaa760e01b8152336004820152602401610357565b6001600160a01b0382166104ac5760405163ec442f0560e01b81525f6004820152602401610357565b6102f75f83836105e7565b600580546001600160a01b0383811673ffffffffffffffffffffffffffffffffffffffff19831681179093556040519116919082907f8be0079c531659141344cd1fd0a4f28419497f9722a3daafe3b4186f6b6457e0905f90a35050565b6001600160a01b03841661053e5760405163e602df0560e01b81525f6004820152602401610357565b6001600160a01b03831661056757604051634a1406b160e11b81525f6004820152602401610357565b6001600160a01b038085165f90815260016020908152604080832093871683529290522082905580156103f357826001600160a01b0316846001600160a01b03167f8c5be1e5ebec7d5bd14f71427d1e84f3dd0314c0f7b2291e5b200ac8c7c3b925846040516105d991815260200190565b60405180910390a350505050565b6001600160a01b038316610611578060025f8282546106069190610848565b909155506106819050565b6001600160a01b0383165f90815260208190526040902054818110156106635760405163391434e360e21b81526001600160a01b03851660048201526024810182905260448101839052606401610357565b6001600160a01b0384165f9081526020819052604090209082900390555b6001600160a01b03821661069d576002805482900390556106bb565b6001600160a01b0382165f9081526020819052604090208054820190555b816001600160a01b0316836001600160a01b03167fddf252ad1be2c89b69c2b068fc378daa952ba7f163c4a11628f55a4df523b3ef8360405161070091815260200190565b60405180910390a3505050565b602081525f82518060208401528060208501604085015e5f604082850101526040601f19601f83011684010191505092915050565b80356001600160a01b0381168114610758575f80fd5b919050565b5f806040838503121561076e575f80fd5b61077783610742565b946020939093013593505050565b5f805f60608486031215610797575f80fd5b6107a084610742565b92506107ae60208501610742565b929592945050506040919091013590565b5f602082840312156107cf575f80fd5b6107d882610742565b9392505050565b5f80604083850312156107f0575f80fd5b6107f983610742565b915061080760208401610742565b90509250929050565b600181811c9082168061082457607f821691505b60208210810361084257634e487b7160e01b5f52602260045260245ffd5b50919050565b808201808211156102bc57634e487b7160e01b5f52601160045260245ffdfea2646970667358221220125759cfbb2d2c75316167bee3f6be89b00d06ec39f00183589e3cfd2b85e6aa64736f6c634300081a003362616c616e6365206f66204e4f2028746f6b656e312920686f6f6b206265666f7265207472616e736665723a20256462616c616e6365206f66204e4f20686f6f6b206265666f726520737761703a20256462616c616e6365206f66205945532028746f6b656e302920686f6f6b206265666f7265207472616e736665723a20256462616c616e6365206f66204e4f2028746f6b656e312920686f6f6b20616674657220736574746c653a202564646573697265644f7574636f6d65546f6b656e7320696e2065786563757465537761702073656c6c205945533a20256462616c616e6365206f662059455320686f6f6b206265666f726520737761703a20256462616c616e6365206f66205945532028746f6b656e302920686f6f6b20616674657220736574746c653a202564a26469706673582212205ebd4d88db1d696cf34f66504b91db141c295c8eed3df01871e93128063834e664736f6c634300081a0033","linkReferences":{}},"methodIdentifiers":{"TICK_SPACING()":"46ca626b","_handleSwap((address,address,uint24,int24,address),(bool,int256,uint160))":"3e0b6237","afterAddLiquidity(address,(address,address,uint24,int24,address),(int24,int24,int256,bytes32),int256,int256,bytes)":"9f063efc","afterDonate(address,(address,address,uint24,int24,address),uint256,uint256,bytes)":"e1b4af69","afterInitialize(address,(address,address,uint24,int24,address),uint160,int24)":"6fe7e6eb","afterRemoveLiquidity(address,(address,address,uint24,int24,address),(int24,int24,int256,bytes32),int256,int256,bytes)":"6c2bbe7e","afterSwap(address,(address,address,uint24,int24,address),(bool,int256,uint160),int256,bytes)":"b47b2fb1","beforeAddLiquidity(address,(address,address,uint24,int24,address),(int24,int24,int256,bytes32),bytes)":"259982e5","beforeDonate(address,(address,address,uint24,int24,address),uint256,uint256,bytes)":"b6a8b0fa","beforeInitialize(address,(address,address,uint24,int24,address),uint160)":"dc98354e","beforeRemoveLiquidity(address,(address,address,uint24,int24,address),(int24,int24,int256,bytes32),bytes)":"21d0ee70","beforeSwap(address,(address,address,uint24,int24,address),(bool,int256,uint160),bytes)":"575e24b4","cancelMarket(bytes32)":"bdb83289","claimWinnings(bytes32)":"e49b606c","claimedTokens(bytes32)":"c441b239","createMarketAndDepositCollateral(address,address,address,uint256)":"74899d8a","createMarketWithCollateralAndLiquidity(address,address,address,uint256)":"1089624f","executeSwap(bytes32,bool,int128)":"6b5c215b","getHookPermissions()":"c4e833ce","hasClaimed(bytes32,address)":"92a42d1d","marketCount()":"ec979082","marketPoolIds(uint256)":"b7988290","markets(bytes32)":"7564912b","poolManager()":"dc4c90d3","poolm()":"bc8aac57","posm()":"6f70a7fa","quoteCollateralNeededForTrade(bytes32,uint256,uint256,uint256,address)":"5be192d7","quoter()":"c6bbd5a7","resolveMarket(bytes32,bool)":"6c9f1394","uniHelper()":"d05d783e"},"id":100}